{
  "contractName": "Volunteer",
  "abi": [
    {
      "inputs": [],
      "stateMutability": "nonpayable",
      "type": "constructor"
    },
    {
      "inputs": [],
      "name": "countId",
      "outputs": [
        {
          "internalType": "uint256",
          "name": "",
          "type": "uint256"
        }
      ],
      "stateMutability": "view",
      "type": "function",
      "constant": true
    },
    {
      "inputs": [],
      "name": "owner",
      "outputs": [
        {
          "internalType": "address",
          "name": "",
          "type": "address"
        }
      ],
      "stateMutability": "view",
      "type": "function",
      "constant": true
    },
    {
      "inputs": [],
      "name": "donate",
      "outputs": [],
      "stateMutability": "payable",
      "type": "function",
      "payable": true
    },
    {
      "inputs": [],
      "name": "getBalanceAddress",
      "outputs": [
        {
          "internalType": "uint256",
          "name": "",
          "type": "uint256"
        }
      ],
      "stateMutability": "view",
      "type": "function",
      "constant": true
    },
    {
      "inputs": [
        {
          "internalType": "uint256",
          "name": "amount",
          "type": "uint256"
        }
      ],
      "name": "withdraw",
      "outputs": [],
      "stateMutability": "nonpayable",
      "type": "function"
    }
  ],
  "bytecode": "0x608060405234801561001057600080fd5b50336000806101000a81548173ffffffffffffffffffffffffffffffffffffffff021916908373ffffffffffffffffffffffffffffffffffffffff1602179055506106a9806100606000396000f3fe60806040526004361061004a5760003560e01c80632e1a7d4d1461004f5780638da5cb5b1461007857806392267043146100a3578063df615ade146100ce578063ed88c68e146100f9575b600080fd5b34801561005b57600080fd5b50610076600480360381019061007191906103f4565b610103565b005b34801561008457600080fd5b5061008d610226565b60405161009a9190610462565b60405180910390f35b3480156100af57600080fd5b506100b861024a565b6040516100c5919061048c565b60405180910390f35b3480156100da57600080fd5b506100e3610250565b6040516100f0919061048c565b60405180910390f35b610101610258565b005b3373ffffffffffffffffffffffffffffffffffffffff1660008054906101000a900473ffffffffffffffffffffffffffffffffffffffff1673ffffffffffffffffffffffffffffffffffffffff1614610191576040517f08c379a000000000000000000000000000000000000000000000000000000000815260040161018890610504565b60405180910390fd5b670de0b6b3a76400008110156101dc576040517f08c379a00000000000000000000000000000000000000000000000000000000081526004016101d390610570565b60405180910390fd5b3373ffffffffffffffffffffffffffffffffffffffff166108fc829081150290604051600060405180830381858888f19350505050158015610222573d6000803e3d6000fd5b5050565b60008054906101000a900473ffffffffffffffffffffffffffffffffffffffff1681565b60015481565b600047905090565b6000339050600034116102a0576040517f08c379a0000000000000000000000000000000000000000000000000000000008152600401610297906105dc565b60405180910390fd5b600360008273ffffffffffffffffffffffffffffffffffffffff1673ffffffffffffffffffffffffffffffffffffffff16815260200190815260200160002060009054906101000a900460ff166103b657600160008154809291906103049061062b565b91905055508060026000600154815260200190815260200160002060006101000a81548173ffffffffffffffffffffffffffffffffffffffff021916908373ffffffffffffffffffffffffffffffffffffffff1602179055506001600360008373ffffffffffffffffffffffffffffffffffffffff1673ffffffffffffffffffffffffffffffffffffffff16815260200190815260200160002060006101000a81548160ff0219169083151502179055505b50565b600080fd5b6000819050919050565b6103d1816103be565b81146103dc57600080fd5b50565b6000813590506103ee816103c8565b92915050565b60006020828403121561040a576104096103b9565b5b6000610418848285016103df565b91505092915050565b600073ffffffffffffffffffffffffffffffffffffffff82169050919050565b600061044c82610421565b9050919050565b61045c81610441565b82525050565b60006020820190506104776000830184610453565b92915050565b610486816103be565b82525050565b60006020820190506104a1600083018461047d565b92915050565b600082825260208201905092915050565b7f54686973206973204e6f74204f776e6572000000000000000000000000000000600082015250565b60006104ee6011836104a7565b91506104f9826104b8565b602082019050919050565b6000602082019050818103600083015261051d816104e1565b9050919050565b7f5468652057697468204472617720416d6f756e742069732061204c6974746c65600082015250565b600061055a6020836104a7565b915061056582610524565b602082019050919050565b600060208201905081810360008301526105898161054d565b9050919050565b7f7468652056616c75652069732076657279206c6974746c650000000000000000600082015250565b60006105c66018836104a7565b91506105d182610590565b602082019050919050565b600060208201905081810360008301526105f5816105b9565b9050919050565b7f4e487b7100000000000000000000000000000000000000000000000000000000600052601160045260246000fd5b6000610636826103be565b91507fffffffffffffffffffffffffffffffffffffffffffffffffffffffffffffffff8203610668576106676105fc565b5b60018201905091905056fea264697066735822122061dcab8152d48f093b0c082fe0b9c6bc7da076b9fc852dae1c848b1f92beb90b64736f6c634300080d0033",
  "immutableReferences": {},
  "source": "// SPDX-License-Identifier: GPL-3.0\r\n\r\npragma solidity >=0.7.0 <0.9.0;\r\n\r\nimport \"./VolunteerInterface.sol\";\r\n\r\ncontract Volunteer is VolunteerInterface{\r\n    /// Variables\r\n    address public owner;\r\n    uint public countId;\r\n    mapping(uint=>address) private foundrs;\r\n    mapping(address=>bool) private successFoundrs;\r\n    \r\n    constructor() {\r\n        owner = msg.sender;\r\n    }\r\n\r\n    modifier CheckOwner {\r\n\r\n        require(owner == msg.sender , \"This is Not Owner\");\r\n        _;\r\n    }\r\n\r\n\r\n    /// Functions \r\n\r\n    function donate() override external payable {\r\n        address _user = msg.sender;\r\n        require(msg.value > 0 ,\"the Value is very little\");\r\n\r\n        if(!successFoundrs[_user]) {\r\n            countId++;\r\n            foundrs[countId] = _user;\r\n            successFoundrs[_user] = true;\r\n        }\r\n    }\r\n\r\n\r\n    function getBalanceAddress() public view returns(uint) {\r\n        return address(this).balance; \r\n    }\r\n\r\n\r\n    function withdraw(uint amount) CheckOwner override external {\r\n        require(amount >= 1000000000000000000 , \"The With Draw Amount is a Little\" );\r\n        payable(msg.sender).transfer(amount);\r\n    }\r\n\r\n\r\n\r\n}",
  "sourcePath": "C:\\donate\\contracts\\Volunteer.sol",
  "compiler": {
    "name": "solc",
    "version": "0.8.13+commit.abaa5c0e.Emscripten.clang"
  },
  "schemaVersion": "3.4.7",
  "updatedAt": "2022-06-04T18:48:33.254Z",
  "networkType": "ethereum",
  "devdoc": {
    "kind": "dev",
    "methods": {},
    "version": 1
  },
  "userdoc": {
    "kind": "user",
    "methods": {
      "donate()": {
        "notice": "Functions "
      },
      "owner()": {
        "notice": "Variables"
      }
    },
    "version": 1
  }
}